{
  "_format": "hh-sol-artifact-1",
  "contractName": "GameNFT",
  "sourceName": "contracts/GameNFT.sol",
  "abi": [
    {
      "inputs": [
        {
          "internalType": "string",
          "name": "_name",
          "type": "string"
        },
        {
          "internalType": "string",
          "name": "_symbol",
          "type": "string"
        },
        {
          "internalType": "address",
          "name": "initialOwner",
          "type": "address"
        }
      ],
      "stateMutability": "nonpayable",
      "type": "constructor"
    },
    {
      "inputs": [
        {
          "internalType": "address",
          "name": "sender",
          "type": "address"
        },
        {
          "internalType": "uint256",
          "name": "tokenId",
          "type": "uint256"
        },
        {
          "internalType": "address",
          "name": "owner",
          "type": "address"
        }
      ],
      "name": "ERC721IncorrectOwner",
      "type": "error"
    },
    {
      "inputs": [
        {
          "internalType": "address",
          "name": "operator",
          "type": "address"
        },
        {
          "internalType": "uint256",
          "name": "tokenId",
          "type": "uint256"
        }
      ],
      "name": "ERC721InsufficientApproval",
      "type": "error"
    },
    {
      "inputs": [
        {
          "internalType": "address",
          "name": "approver",
          "type": "address"
        }
      ],
      "name": "ERC721InvalidApprover",
      "type": "error"
    },
    {
      "inputs": [
        {
          "internalType": "address",
          "name": "operator",
          "type": "address"
        }
      ],
      "name": "ERC721InvalidOperator",
      "type": "error"
    },
    {
      "inputs": [
        {
          "internalType": "address",
          "name": "owner",
          "type": "address"
        }
      ],
      "name": "ERC721InvalidOwner",
      "type": "error"
    },
    {
      "inputs": [
        {
          "internalType": "address",
          "name": "receiver",
          "type": "address"
        }
      ],
      "name": "ERC721InvalidReceiver",
      "type": "error"
    },
    {
      "inputs": [
        {
          "internalType": "address",
          "name": "sender",
          "type": "address"
        }
      ],
      "name": "ERC721InvalidSender",
      "type": "error"
    },
    {
      "inputs": [
        {
          "internalType": "uint256",
          "name": "tokenId",
          "type": "uint256"
        }
      ],
      "name": "ERC721NonexistentToken",
      "type": "error"
    },
    {
      "inputs": [
        {
          "internalType": "address",
          "name": "owner",
          "type": "address"
        }
      ],
      "name": "OwnableInvalidOwner",
      "type": "error"
    },
    {
      "inputs": [
        {
          "internalType": "address",
          "name": "account",
          "type": "address"
        }
      ],
      "name": "OwnableUnauthorizedAccount",
      "type": "error"
    },
    {
      "anonymous": false,
      "inputs": [
        {
          "indexed": true,
          "internalType": "address",
          "name": "owner",
          "type": "address"
        },
        {
          "indexed": true,
          "internalType": "address",
          "name": "approved",
          "type": "address"
        },
        {
          "indexed": true,
          "internalType": "uint256",
          "name": "tokenId",
          "type": "uint256"
        }
      ],
      "name": "Approval",
      "type": "event"
    },
    {
      "anonymous": false,
      "inputs": [
        {
          "indexed": true,
          "internalType": "address",
          "name": "owner",
          "type": "address"
        },
        {
          "indexed": true,
          "internalType": "address",
          "name": "operator",
          "type": "address"
        },
        {
          "indexed": false,
          "internalType": "bool",
          "name": "approved",
          "type": "bool"
        }
      ],
      "name": "ApprovalForAll",
      "type": "event"
    },
    {
      "anonymous": false,
      "inputs": [
        {
          "indexed": false,
          "internalType": "uint256",
          "name": "_fromTokenId",
          "type": "uint256"
        },
        {
          "indexed": false,
          "internalType": "uint256",
          "name": "_toTokenId",
          "type": "uint256"
        }
      ],
      "name": "BatchMetadataUpdate",
      "type": "event"
    },
    {
      "anonymous": false,
      "inputs": [
        {
          "indexed": false,
          "internalType": "uint256",
          "name": "newCreationFee",
          "type": "uint256"
        }
      ],
      "name": "CreationFeeUpdated",
      "type": "event"
    },
    {
      "anonymous": false,
      "inputs": [
        {
          "indexed": false,
          "internalType": "address",
          "name": "creator",
          "type": "address"
        }
      ],
      "name": "CreatorApproved",
      "type": "event"
    },
    {
      "anonymous": false,
      "inputs": [
        {
          "indexed": false,
          "internalType": "address",
          "name": "creator",
          "type": "address"
        }
      ],
      "name": "CreatorRevoked",
      "type": "event"
    },
    {
      "anonymous": false,
      "inputs": [
        {
          "indexed": false,
          "internalType": "uint256",
          "name": "_tokenId",
          "type": "uint256"
        }
      ],
      "name": "MetadataUpdate",
      "type": "event"
    },
    {
      "anonymous": false,
      "inputs": [
        {
          "indexed": true,
          "internalType": "uint256",
          "name": "tokenId",
          "type": "uint256"
        },
        {
          "indexed": false,
          "internalType": "address",
          "name": "creator",
          "type": "address"
        },
        {
          "indexed": false,
          "internalType": "string",
          "name": "tokenURI",
          "type": "string"
        }
      ],
      "name": "NFTCreated",
      "type": "event"
    },
    {
      "anonymous": false,
      "inputs": [
        {
          "indexed": true,
          "internalType": "uint256",
          "name": "tokenId",
          "type": "uint256"
        },
        {
          "indexed": false,
          "internalType": "address",
          "name": "from",
          "type": "address"
        },
        {
          "indexed": false,
          "internalType": "address",
          "name": "to",
          "type": "address"
        },
        {
          "indexed": false,
          "internalType": "uint256",
          "name": "feePaid",
          "type": "uint256"
        }
      ],
      "name": "NFTTransferred",
      "type": "event"
    },
    {
      "anonymous": false,
      "inputs": [
        {
          "indexed": true,
          "internalType": "address",
          "name": "previousOwner",
          "type": "address"
        },
        {
          "indexed": true,
          "internalType": "address",
          "name": "newOwner",
          "type": "address"
        }
      ],
      "name": "OwnershipTransferred",
      "type": "event"
    },
    {
      "anonymous": false,
      "inputs": [
        {
          "indexed": true,
          "internalType": "address",
          "name": "from",
          "type": "address"
        },
        {
          "indexed": true,
          "internalType": "address",
          "name": "to",
          "type": "address"
        },
        {
          "indexed": true,
          "internalType": "uint256",
          "name": "tokenId",
          "type": "uint256"
        }
      ],
      "name": "Transfer",
      "type": "event"
    },
    {
      "anonymous": false,
      "inputs": [
        {
          "indexed": false,
          "internalType": "uint256",
          "name": "newTransferFee",
          "type": "uint256"
        }
      ],
      "name": "TransferFeeUpdated",
      "type": "event"
    },
    {
      "stateMutability": "payable",
      "type": "fallback"
    },
    {
      "inputs": [
        {
          "internalType": "address",
          "name": "to",
          "type": "address"
        },
        {
          "internalType": "uint256",
          "name": "tokenId",
          "type": "uint256"
        }
      ],
      "name": "approve",
      "outputs": [],
      "stateMutability": "nonpayable",
      "type": "function"
    },
    {
      "inputs": [
        {
          "internalType": "address",
          "name": "_creator",
          "type": "address"
        }
      ],
      "name": "approveCreator",
      "outputs": [],
      "stateMutability": "nonpayable",
      "type": "function"
    },
    {
      "inputs": [
        {
          "internalType": "address",
          "name": "",
          "type": "address"
        }
      ],
      "name": "approvedCreators",
      "outputs": [
        {
          "internalType": "bool",
          "name": "",
          "type": "bool"
        }
      ],
      "stateMutability": "view",
      "type": "function"
    },
    {
      "inputs": [
        {
          "internalType": "address",
          "name": "owner",
          "type": "address"
        }
      ],
      "name": "balanceOf",
      "outputs": [
        {
          "internalType": "uint256",
          "name": "",
          "type": "uint256"
        }
      ],
      "stateMutability": "view",
      "type": "function"
    },
    {
      "inputs": [
        {
          "internalType": "string",
          "name": "tokenURI",
          "type": "string"
        }
      ],
      "name": "createNFT",
      "outputs": [
        {
          "internalType": "uint256",
          "name": "",
          "type": "uint256"
        }
      ],
      "stateMutability": "payable",
      "type": "function"
    },
    {
      "inputs": [],
      "name": "creationFee",
      "outputs": [
        {
          "internalType": "uint256",
          "name": "",
          "type": "uint256"
        }
      ],
      "stateMutability": "view",
      "type": "function"
    },
    {
      "inputs": [
        {
          "internalType": "uint256",
          "name": "tokenId",
          "type": "uint256"
        }
      ],
      "name": "getApproved",
      "outputs": [
        {
          "internalType": "address",
          "name": "",
          "type": "address"
        }
      ],
      "stateMutability": "view",
      "type": "function"
    },
    {
      "inputs": [
        {
          "internalType": "address",
          "name": "owner",
          "type": "address"
        },
        {
          "internalType": "address",
          "name": "operator",
          "type": "address"
        }
      ],
      "name": "isApprovedForAll",
      "outputs": [
        {
          "internalType": "bool",
          "name": "",
          "type": "bool"
        }
      ],
      "stateMutability": "view",
      "type": "function"
    },
    {
      "inputs": [],
      "name": "name",
      "outputs": [
        {
          "internalType": "string",
          "name": "",
          "type": "string"
        }
      ],
      "stateMutability": "view",
      "type": "function"
    },
    {
      "inputs": [],
      "name": "owner",
      "outputs": [
        {
          "internalType": "address",
          "name": "",
          "type": "address"
        }
      ],
      "stateMutability": "view",
      "type": "function"
    },
    {
      "inputs": [
        {
          "internalType": "uint256",
          "name": "tokenId",
          "type": "uint256"
        }
      ],
      "name": "ownerOf",
      "outputs": [
        {
          "internalType": "address",
          "name": "",
          "type": "address"
        }
      ],
      "stateMutability": "view",
      "type": "function"
    },
    {
      "inputs": [],
      "name": "renounceOwnership",
      "outputs": [],
      "stateMutability": "nonpayable",
      "type": "function"
    },
    {
      "inputs": [
        {
          "internalType": "address",
          "name": "_creator",
          "type": "address"
        }
      ],
      "name": "revokeCreator",
      "outputs": [],
      "stateMutability": "nonpayable",
      "type": "function"
    },
    {
      "inputs": [
        {
          "internalType": "address",
          "name": "from",
          "type": "address"
        },
        {
          "internalType": "address",
          "name": "to",
          "type": "address"
        },
        {
          "internalType": "uint256",
          "name": "tokenId",
          "type": "uint256"
        }
      ],
      "name": "safeTransferFrom",
      "outputs": [],
      "stateMutability": "nonpayable",
      "type": "function"
    },
    {
      "inputs": [
        {
          "internalType": "address",
          "name": "from",
          "type": "address"
        },
        {
          "internalType": "address",
          "name": "to",
          "type": "address"
        },
        {
          "internalType": "uint256",
          "name": "tokenId",
          "type": "uint256"
        },
        {
          "internalType": "bytes",
          "name": "data",
          "type": "bytes"
        }
      ],
      "name": "safeTransferFrom",
      "outputs": [],
      "stateMutability": "nonpayable",
      "type": "function"
    },
    {
      "inputs": [
        {
          "internalType": "address",
          "name": "operator",
          "type": "address"
        },
        {
          "internalType": "bool",
          "name": "approved",
          "type": "bool"
        }
      ],
      "name": "setApprovalForAll",
      "outputs": [],
      "stateMutability": "nonpayable",
      "type": "function"
    },
    {
      "inputs": [
        {
          "internalType": "bytes4",
          "name": "interfaceId",
          "type": "bytes4"
        }
      ],
      "name": "supportsInterface",
      "outputs": [
        {
          "internalType": "bool",
          "name": "",
          "type": "bool"
        }
      ],
      "stateMutability": "view",
      "type": "function"
    },
    {
      "inputs": [],
      "name": "symbol",
      "outputs": [
        {
          "internalType": "string",
          "name": "",
          "type": "string"
        }
      ],
      "stateMutability": "view",
      "type": "function"
    },
    {
      "inputs": [],
      "name": "tokenCounter",
      "outputs": [
        {
          "internalType": "uint256",
          "name": "",
          "type": "uint256"
        }
      ],
      "stateMutability": "view",
      "type": "function"
    },
    {
      "inputs": [
        {
          "internalType": "uint256",
          "name": "tokenId",
          "type": "uint256"
        }
      ],
      "name": "tokenURI",
      "outputs": [
        {
          "internalType": "string",
          "name": "",
          "type": "string"
        }
      ],
      "stateMutability": "view",
      "type": "function"
    },
    {
      "inputs": [],
      "name": "transferFee",
      "outputs": [
        {
          "internalType": "uint256",
          "name": "",
          "type": "uint256"
        }
      ],
      "stateMutability": "view",
      "type": "function"
    },
    {
      "inputs": [
        {
          "internalType": "address",
          "name": "from",
          "type": "address"
        },
        {
          "internalType": "address",
          "name": "to",
          "type": "address"
        },
        {
          "internalType": "uint256",
          "name": "tokenId",
          "type": "uint256"
        }
      ],
      "name": "transferFrom",
      "outputs": [],
      "stateMutability": "nonpayable",
      "type": "function"
    },
    {
      "inputs": [
        {
          "internalType": "address",
          "name": "from",
          "type": "address"
        },
        {
          "internalType": "address",
          "name": "to",
          "type": "address"
        },
        {
          "internalType": "uint256",
          "name": "tokenId",
          "type": "uint256"
        }
      ],
      "name": "transferNFT",
      "outputs": [],
      "stateMutability": "payable",
      "type": "function"
    },
    {
      "inputs": [
        {
          "internalType": "address",
          "name": "newOwner",
          "type": "address"
        }
      ],
      "name": "transferOwnership",
      "outputs": [],
      "stateMutability": "nonpayable",
      "type": "function"
    },
    {
      "inputs": [
        {
          "internalType": "uint256",
          "name": "newCreationFee",
          "type": "uint256"
        }
      ],
      "name": "updateCreationFee",
      "outputs": [],
      "stateMutability": "nonpayable",
      "type": "function"
    },
    {
      "inputs": [
        {
          "internalType": "uint256",
          "name": "newTransferFee",
          "type": "uint256"
        }
      ],
      "name": "updateTransferFee",
      "outputs": [],
      "stateMutability": "nonpayable",
      "type": "function"
    },
    {
      "inputs": [],
      "name": "withdrawFees",
      "outputs": [],
      "stateMutability": "nonpayable",
      "type": "function"
    },
    {
      "stateMutability": "payable",
      "type": "receive"
    }
  ],
  "bytecode": "0x608060405266038d7ea4c680006009556601c6bf52634000600a5534801561002657600080fd5b50604051613a09380380613a0983398181016040528101906100489190610398565b808383816000908161005a9190610644565b50806001908161006a9190610644565b505050600073ffffffffffffffffffffffffffffffffffffffff168173ffffffffffffffffffffffffffffffffffffffff16036100df5760006040517f1e4fbdf70000000000000000000000000000000000000000000000000000000081526004016100d69190610725565b60405180910390fd5b6100ee816100ff60201b60201c565b506000600881905550505050610740565b6000600760009054906101000a900473ffffffffffffffffffffffffffffffffffffffff16905081600760006101000a81548173ffffffffffffffffffffffffffffffffffffffff021916908373ffffffffffffffffffffffffffffffffffffffff1602179055508173ffffffffffffffffffffffffffffffffffffffff168173ffffffffffffffffffffffffffffffffffffffff167f8be0079c531659141344cd1fd0a4f28419497f9722a3daafe3b4186f6b6457e060405160405180910390a35050565b6000604051905090565b600080fd5b600080fd5b600080fd5b600080fd5b6000601f19601f8301169050919050565b7f4e487b7100000000000000000000000000000000000000000000000000000000600052604160045260246000fd5b61022c826101e3565b810181811067ffffffffffffffff8211171561024b5761024a6101f4565b5b80604052505050565b600061025e6101c5565b905061026a8282610223565b919050565b600067ffffffffffffffff82111561028a576102896101f4565b5b610293826101e3565b9050602081019050919050565b60005b838110156102be5780820151818401526020810190506102a3565b60008484015250505050565b60006102dd6102d88461026f565b610254565b9050828152602081018484840111156102f9576102f86101de565b5b6103048482856102a0565b509392505050565b600082601f830112610321576103206101d9565b5b81516103318482602086016102ca565b91505092915050565b600073ffffffffffffffffffffffffffffffffffffffff82169050919050565b60006103658261033a565b9050919050565b6103758161035a565b811461038057600080fd5b50565b6000815190506103928161036c565b92915050565b6000806000606084860312156103b1576103b06101cf565b5b600084015167ffffffffffffffff8111156103cf576103ce6101d4565b5b6103db8682870161030c565b935050602084015167ffffffffffffffff8111156103fc576103fb6101d4565b5b6104088682870161030c565b925050604061041986828701610383565b9150509250925092565b600081519050919050565b7f4e487b7100000000000000000000000000000000000000000000000000000000600052602260045260246000fd5b6000600282049050600182168061047557607f821691505b6020821081036104885761048761042e565b5b50919050565b60008190508160005260206000209050919050565b60006020601f8301049050919050565b600082821b905092915050565b6000600883026104f07fffffffffffffffffffffffffffffffffffffffffffffffffffffffffffffffff826104b3565b6104fa86836104b3565b95508019841693508086168417925050509392505050565b6000819050919050565b6000819050919050565b600061054161053c61053784610512565b61051c565b610512565b9050919050565b6000819050919050565b61055b83610526565b61056f61056782610548565b8484546104c0565b825550505050565b600090565b610584610577565b61058f818484610552565b505050565b5b818110156105b3576105a860008261057c565b600181019050610595565b5050565b601f8211156105f8576105c98161048e565b6105d2846104a3565b810160208510156105e1578190505b6105f56105ed856104a3565b830182610594565b50505b505050565b600082821c905092915050565b600061061b600019846008026105fd565b1980831691505092915050565b6000610634838361060a565b9150826002028217905092915050565b61064d82610423565b67ffffffffffffffff811115610666576106656101f4565b5b610670825461045d565b61067b8282856105b7565b600060209050601f8311600181146106ae576000841561069c578287015190505b6106a68582610628565b86555061070e565b601f1984166106bc8661048e565b60005b828110156106e4578489015182556001820191506020850194506020810190506106bf565b8683101561070157848901516106fd601f89168261060a565b8355505b6001600288020188555050505b505050505050565b61071f8161035a565b82525050565b600060208201905061073a6000830184610716565b92915050565b6132ba8061074f6000396000f3fe6080604052600436106101a05760003560e01c8063715018a6116100ec578063c0e69af61161008a578063da2ed03e11610064578063da2ed03e146105a3578063dce0b4e4146105d3578063e985e9c5146105fe578063f2fde38b1461063b576101a1565b8063c0e69af614610512578063c87b56dd1461053b578063d082e38114610578576101a1565b806395d89b41116100c657806395d89b411461046a578063a22cb46514610495578063acb2ad6f146104be578063b88d4fde146104e9576101a1565b8063715018a6146103ff5780638577a6d5146104165780638da5cb5b1461043f576101a1565b806342842e0e116101595780636352211e116101335780636352211e1461034057806369e9cae11461037d5780636fa237951461039957806370a08231146103c2576101a1565b806342842e0e146102c3578063476343ee146102ec5780635523246714610303576101a1565b806301ffc9a7146101a357806306fdde03146101e0578063081812fc1461020b578063095ea7b31461024857806323b872dd146102715780633079fc901461029a576101a1565b5b005b3480156101af57600080fd5b506101ca60048036038101906101c591906124a2565b610664565b6040516101d791906124ea565b60405180910390f35b3480156101ec57600080fd5b506101f56106c5565b6040516102029190612595565b60405180910390f35b34801561021757600080fd5b50610232600480360381019061022d91906125ed565b610757565b60405161023f919061265b565b60405180910390f35b34801561025457600080fd5b5061026f600480360381019061026a91906126a2565b610773565b005b34801561027d57600080fd5b50610298600480360381019061029391906126e2565b610789565b005b3480156102a657600080fd5b506102c160048036038101906102bc9190612735565b61088b565b005b3480156102cf57600080fd5b506102ea60048036038101906102e591906126e2565b610925565b005b3480156102f857600080fd5b50610301610945565b005b34801561030f57600080fd5b5061032a60048036038101906103259190612735565b6109e6565b60405161033791906124ea565b60405180910390f35b34801561034c57600080fd5b50610367600480360381019061036291906125ed565b610a06565b604051610374919061265b565b60405180910390f35b610397600480360381019061039291906126e2565b610a18565b005b3480156103a557600080fd5b506103c060048036038101906103bb91906125ed565b610b7d565b005b3480156103ce57600080fd5b506103e960048036038101906103e49190612735565b610bc6565b6040516103f69190612771565b60405180910390f35b34801561040b57600080fd5b50610414610c80565b005b34801561042257600080fd5b5061043d600480360381019061043891906125ed565b610c94565b005b34801561044b57600080fd5b50610454610cdd565b604051610461919061265b565b60405180910390f35b34801561047657600080fd5b5061047f610d07565b60405161048c9190612595565b60405180910390f35b3480156104a157600080fd5b506104bc60048036038101906104b791906127b8565b610d99565b005b3480156104ca57600080fd5b506104d3610daf565b6040516104e09190612771565b60405180910390f35b3480156104f557600080fd5b50610510600480360381019061050b919061292d565b610db5565b005b34801561051e57600080fd5b5061053960048036038101906105349190612735565b610dda565b005b34801561054757600080fd5b50610562600480360381019061055d91906125ed565b610e74565b60405161056f9190612595565b60405180910390f35b34801561058457600080fd5b5061058d610f87565b60405161059a9190612771565b60405180910390f35b6105bd60048036038101906105b89190612a51565b610f8d565b6040516105ca9190612771565b60405180910390f35b3480156105df57600080fd5b506105e8611113565b6040516105f59190612771565b60405180910390f35b34801561060a57600080fd5b5061062560048036038101906106209190612a9a565b611119565b60405161063291906124ea565b60405180910390f35b34801561064757600080fd5b50610662600480360381019061065d9190612735565b6111ad565b005b6000634906490660e01b7bffffffffffffffffffffffffffffffffffffffffffffffffffffffff1916827bffffffffffffffffffffffffffffffffffffffffffffffffffffffff191614806106be57506106bd82611233565b5b9050919050565b6060600080546106d490612b09565b80601f016020809104026020016040519081016040528092919081815260200182805461070090612b09565b801561074d5780601f106107225761010080835404028352916020019161074d565b820191906000526020600020905b81548152906001019060200180831161073057829003601f168201915b5050505050905090565b600061076282611315565b5061076c8261139d565b9050919050565b61078582826107806113da565b6113e2565b5050565b600073ffffffffffffffffffffffffffffffffffffffff168273ffffffffffffffffffffffffffffffffffffffff16036107fb5760006040517f64a0ae920000000000000000000000000000000000000000000000000000000081526004016107f2919061265b565b60405180910390fd5b600061080f838361080a6113da565b6113f4565b90508373ffffffffffffffffffffffffffffffffffffffff168173ffffffffffffffffffffffffffffffffffffffff1614610885578382826040517f64283d7b00000000000000000000000000000000000000000000000000000000815260040161087c93929190612b3a565b60405180910390fd5b50505050565b61089361160e565b6001600b60008373ffffffffffffffffffffffffffffffffffffffff1673ffffffffffffffffffffffffffffffffffffffff16815260200190815260200160002060006101000a81548160ff0219169083151502179055507f7ce7c7256bb8d3c2e68f7273d8ec05ea496b7661c3695ef3d7eb18ed9a9a025a8160405161091a919061265b565b60405180910390a150565b61094083838360405180602001604052806000815250610db5565b505050565b61094d61160e565b600047905060008111610995576040517f08c379a000000000000000000000000000000000000000000000000000000000815260040161098c90612bbd565b60405180910390fd5b61099d610cdd565b73ffffffffffffffffffffffffffffffffffffffff166108fc829081150290604051600060405180830381858888f193505050501580156109e2573d6000803e3d6000fd5b5050565b600b6020528060005260406000206000915054906101000a900460ff1681565b6000610a1182611315565b9050919050565b610a20610cdd565b73ffffffffffffffffffffffffffffffffffffffff163373ffffffffffffffffffffffffffffffffffffffff161480610a5f5750610a5e8333611119565b5b80610a9d57503373ffffffffffffffffffffffffffffffffffffffff16610a8582610757565b73ffffffffffffffffffffffffffffffffffffffff16145b610adc576040517f08c379a0000000000000000000000000000000000000000000000000000000008152600401610ad390612c29565b60405180910390fd5b600a54341015610b21576040517f08c379a0000000000000000000000000000000000000000000000000000000008152600401610b1890612c95565b60405180910390fd5b610b3c83838360405180602001604052806000815250611695565b807f6a64dcba95bf473fff7da0fdf74710d1178f99f72f94db03faaaa2850188adeb848434604051610b7093929190612cb5565b60405180910390a2505050565b610b8561160e565b806009819055507f88a973fd5506071e0cf878b30898776c47d5250a7ee1e6ee0b36df3b03c7c16a81604051610bbb9190612771565b60405180910390a150565b60008073ffffffffffffffffffffffffffffffffffffffff168273ffffffffffffffffffffffffffffffffffffffff1603610c395760006040517f89c62b64000000000000000000000000000000000000000000000000000000008152600401610c30919061265b565b60405180910390fd5b600360008373ffffffffffffffffffffffffffffffffffffffff1673ffffffffffffffffffffffffffffffffffffffff168152602001908152602001600020549050919050565b610c8861160e565b610c9260006116ba565b565b610c9c61160e565b80600a819055507ff9f635b7cf851af6071aaf78ef8a5f752dc52f19d556fea4512b0c2ad4baea7281604051610cd29190612771565b60405180910390a150565b6000600760009054906101000a900473ffffffffffffffffffffffffffffffffffffffff16905090565b606060018054610d1690612b09565b80601f0160208091040260200160405190810160405280929190818152602001828054610d4290612b09565b8015610d8f5780601f10610d6457610100808354040283529160200191610d8f565b820191906000526020600020905b815481529060010190602001808311610d7257829003601f168201915b5050505050905090565b610dab610da46113da565b8383611780565b5050565b600a5481565b610dc0848484610789565b610dd4610dcb6113da565b858585856118ef565b50505050565b610de261160e565b6000600b60008373ffffffffffffffffffffffffffffffffffffffff1673ffffffffffffffffffffffffffffffffffffffff16815260200190815260200160002060006101000a81548160ff0219169083151502179055507fc77d51d04162a5d61b26217b8a8c78870a02749a7a198336685c57d6f128fa4b81604051610e69919061265b565b60405180910390a150565b6060610e7f82611315565b506000600660008481526020019081526020016000208054610ea090612b09565b80601f0160208091040260200160405190810160405280929190818152602001828054610ecc90612b09565b8015610f195780601f10610eee57610100808354040283529160200191610f19565b820191906000526020600020905b815481529060010190602001808311610efc57829003601f168201915b505050505090506000610f2a611aa0565b90506000815103610f3f578192505050610f82565b600082511115610f74578082604051602001610f5c929190612d28565b60405160208183030381529060405292505050610f82565b610f7d84611ab7565b925050505b919050565b60085481565b6000600b60003373ffffffffffffffffffffffffffffffffffffffff1673ffffffffffffffffffffffffffffffffffffffff16815260200190815260200160002060009054906101000a900460ff16806110195750610fea610cdd565b73ffffffffffffffffffffffffffffffffffffffff163373ffffffffffffffffffffffffffffffffffffffff16145b611058576040517f08c379a000000000000000000000000000000000000000000000000000000000815260040161104f90612d98565b60405180910390fd5b60095434101561109d576040517f08c379a000000000000000000000000000000000000000000000000000000000815260040161109490612e04565b60405180910390fd5b600860008154809291906110b090612e53565b9190505550600060085490506110c63382611b20565b6110d08184611b3e565b807f97e133605a9dc1efc14cb96df12d8f7f4904bc8c5832b0fb80df5d635e0e68d73385604051611102929190612e9b565b60405180910390a280915050919050565b60095481565b6000600560008473ffffffffffffffffffffffffffffffffffffffff1673ffffffffffffffffffffffffffffffffffffffff16815260200190815260200160002060008373ffffffffffffffffffffffffffffffffffffffff1673ffffffffffffffffffffffffffffffffffffffff16815260200190815260200160002060009054906101000a900460ff16905092915050565b6111b561160e565b600073ffffffffffffffffffffffffffffffffffffffff168173ffffffffffffffffffffffffffffffffffffffff16036112275760006040517f1e4fbdf700000000000000000000000000000000000000000000000000000000815260040161121e919061265b565b60405180910390fd5b611230816116ba565b50565b60007f80ac58cd000000000000000000000000000000000000000000000000000000007bffffffffffffffffffffffffffffffffffffffffffffffffffffffff1916827bffffffffffffffffffffffffffffffffffffffffffffffffffffffff191614806112fe57507f5b5e139f000000000000000000000000000000000000000000000000000000007bffffffffffffffffffffffffffffffffffffffffffffffffffffffff1916827bffffffffffffffffffffffffffffffffffffffffffffffffffffffff1916145b8061130e575061130d82611b9a565b5b9050919050565b60008061132183611c04565b9050600073ffffffffffffffffffffffffffffffffffffffff168173ffffffffffffffffffffffffffffffffffffffff160361139457826040517f7e27328900000000000000000000000000000000000000000000000000000000815260040161138b9190612771565b60405180910390fd5b80915050919050565b60006004600083815260200190815260200160002060009054906101000a900473ffffffffffffffffffffffffffffffffffffffff169050919050565b600033905090565b6113ef8383836001611c41565b505050565b60008061140084611c04565b9050600073ffffffffffffffffffffffffffffffffffffffff168373ffffffffffffffffffffffffffffffffffffffff161461144257611441818486611e06565b5b600073ffffffffffffffffffffffffffffffffffffffff168173ffffffffffffffffffffffffffffffffffffffff16146114d357611484600085600080611c41565b6001600360008373ffffffffffffffffffffffffffffffffffffffff1673ffffffffffffffffffffffffffffffffffffffff168152602001908152602001600020600082825403925050819055505b600073ffffffffffffffffffffffffffffffffffffffff168573ffffffffffffffffffffffffffffffffffffffff1614611556576001600360008773ffffffffffffffffffffffffffffffffffffffff1673ffffffffffffffffffffffffffffffffffffffff168152602001908152602001600020600082825401925050819055505b846002600086815260200190815260200160002060006101000a81548173ffffffffffffffffffffffffffffffffffffffff021916908373ffffffffffffffffffffffffffffffffffffffff160217905550838573ffffffffffffffffffffffffffffffffffffffff168273ffffffffffffffffffffffffffffffffffffffff167fddf252ad1be2c89b69c2b068fc378daa952ba7f163c4a11628f55a4df523b3ef60405160405180910390a4809150509392505050565b6116166113da565b73ffffffffffffffffffffffffffffffffffffffff16611634610cdd565b73ffffffffffffffffffffffffffffffffffffffff1614611693576116576113da565b6040517f118cdaa700000000000000000000000000000000000000000000000000000000815260040161168a919061265b565b60405180910390fd5b565b6116a0848484611eca565b6116b46116ab6113da565b858585856118ef565b50505050565b6000600760009054906101000a900473ffffffffffffffffffffffffffffffffffffffff16905081600760006101000a81548173ffffffffffffffffffffffffffffffffffffffff021916908373ffffffffffffffffffffffffffffffffffffffff1602179055508173ffffffffffffffffffffffffffffffffffffffff168173ffffffffffffffffffffffffffffffffffffffff167f8be0079c531659141344cd1fd0a4f28419497f9722a3daafe3b4186f6b6457e060405160405180910390a35050565b600073ffffffffffffffffffffffffffffffffffffffff168273ffffffffffffffffffffffffffffffffffffffff16036117f157816040517f5b08ba180000000000000000000000000000000000000000000000000000000081526004016117e8919061265b565b60405180910390fd5b80600560008573ffffffffffffffffffffffffffffffffffffffff1673ffffffffffffffffffffffffffffffffffffffff16815260200190815260200160002060008473ffffffffffffffffffffffffffffffffffffffff1673ffffffffffffffffffffffffffffffffffffffff16815260200190815260200160002060006101000a81548160ff0219169083151502179055508173ffffffffffffffffffffffffffffffffffffffff168373ffffffffffffffffffffffffffffffffffffffff167f17307eab39ab6107e8899845ad3d59bd9653f200f220920489ca2b5937696c31836040516118e291906124ea565b60405180910390a3505050565b60008373ffffffffffffffffffffffffffffffffffffffff163b1115611a99578273ffffffffffffffffffffffffffffffffffffffff1663150b7a02868685856040518563ffffffff1660e01b815260040161194e9493929190612f20565b6020604051808303816000875af192505050801561198a57506040513d601f19601f820116820180604052508101906119879190612f81565b60015b611a0e573d80600081146119ba576040519150601f19603f3d011682016040523d82523d6000602084013e6119bf565b606091505b506000815103611a0657836040517f64a0ae920000000000000000000000000000000000000000000000000000000081526004016119fd919061265b565b60405180910390fd5b805181602001fd5b63150b7a0260e01b7bffffffffffffffffffffffffffffffffffffffffffffffffffffffff1916817bffffffffffffffffffffffffffffffffffffffffffffffffffffffff191614611a9757836040517f64a0ae92000000000000000000000000000000000000000000000000000000008152600401611a8e919061265b565b60405180910390fd5b505b5050505050565b606060405180602001604052806000815250905090565b6060611ac282611315565b506000611acd611aa0565b90506000815111611aed5760405180602001604052806000815250611b18565b80611af784612037565b604051602001611b08929190612d28565b6040516020818303038152906040525b915050919050565b611b3a828260405180602001604052806000815250612105565b5050565b80600660008481526020019081526020016000209081611b5e919061315a565b507ff8e1a15aba9398e019f0b49df1a4fde98ee17ae345cb5f6b5e2c27f5033e8ce782604051611b8e9190612771565b60405180910390a15050565b60007f01ffc9a7000000000000000000000000000000000000000000000000000000007bffffffffffffffffffffffffffffffffffffffffffffffffffffffff1916827bffffffffffffffffffffffffffffffffffffffffffffffffffffffff1916149050919050565b60006002600083815260200190815260200160002060009054906101000a900473ffffffffffffffffffffffffffffffffffffffff169050919050565b8080611c7a5750600073ffffffffffffffffffffffffffffffffffffffff168273ffffffffffffffffffffffffffffffffffffffff1614155b15611dae576000611c8a84611315565b9050600073ffffffffffffffffffffffffffffffffffffffff168373ffffffffffffffffffffffffffffffffffffffff1614158015611cf557508273ffffffffffffffffffffffffffffffffffffffff168173ffffffffffffffffffffffffffffffffffffffff1614155b8015611d085750611d068184611119565b155b15611d4a57826040517fa9fbf51f000000000000000000000000000000000000000000000000000000008152600401611d41919061265b565b60405180910390fd5b8115611dac57838573ffffffffffffffffffffffffffffffffffffffff168273ffffffffffffffffffffffffffffffffffffffff167f8c5be1e5ebec7d5bd14f71427d1e84f3dd0314c0f7b2291e5b200ac8c7c3b92560405160405180910390a45b505b836004600085815260200190815260200160002060006101000a81548173ffffffffffffffffffffffffffffffffffffffff021916908373ffffffffffffffffffffffffffffffffffffffff16021790555050505050565b611e11838383612129565b611ec557600073ffffffffffffffffffffffffffffffffffffffff168373ffffffffffffffffffffffffffffffffffffffff1603611e8657806040517f7e273289000000000000000000000000000000000000000000000000000000008152600401611e7d9190612771565b60405180910390fd5b81816040517f177e802f000000000000000000000000000000000000000000000000000000008152600401611ebc92919061322c565b60405180910390fd5b505050565b600073ffffffffffffffffffffffffffffffffffffffff168273ffffffffffffffffffffffffffffffffffffffff1603611f3c5760006040517f64a0ae92000000000000000000000000000000000000000000000000000000008152600401611f33919061265b565b60405180910390fd5b6000611f4a838360006113f4565b9050600073ffffffffffffffffffffffffffffffffffffffff168173ffffffffffffffffffffffffffffffffffffffff1603611fbd57816040517f7e273289000000000000000000000000000000000000000000000000000000008152600401611fb49190612771565b60405180910390fd5b8373ffffffffffffffffffffffffffffffffffffffff168173ffffffffffffffffffffffffffffffffffffffff1614612031578382826040517f64283d7b00000000000000000000000000000000000000000000000000000000815260040161202893929190612b3a565b60405180910390fd5b50505050565b606060006001612046846121ea565b01905060008167ffffffffffffffff81111561206557612064612802565b5b6040519080825280601f01601f1916602001820160405280156120975781602001600182028036833780820191505090505b509050600082602001820190505b6001156120fa578080600190039150507f3031323334353637383961626364656600000000000000000000000000000000600a86061a8153600a85816120ee576120ed613255565b5b049450600085036120a5575b819350505050919050565b61210f838361233d565b61212461211a6113da565b60008585856118ef565b505050565b60008073ffffffffffffffffffffffffffffffffffffffff168373ffffffffffffffffffffffffffffffffffffffff16141580156121e157508273ffffffffffffffffffffffffffffffffffffffff168473ffffffffffffffffffffffffffffffffffffffff1614806121a257506121a18484611119565b5b806121e057508273ffffffffffffffffffffffffffffffffffffffff166121c88361139d565b73ffffffffffffffffffffffffffffffffffffffff16145b5b90509392505050565b600080600090507a184f03e93ff9f4daa797ed6e38ed64bf6a1f0100000000000000008310612248577a184f03e93ff9f4daa797ed6e38ed64bf6a1f010000000000000000838161223e5761223d613255565b5b0492506040810190505b6d04ee2d6d415b85acef81000000008310612285576d04ee2d6d415b85acef8100000000838161227b5761227a613255565b5b0492506020810190505b662386f26fc1000083106122b457662386f26fc1000083816122aa576122a9613255565b5b0492506010810190505b6305f5e10083106122dd576305f5e10083816122d3576122d2613255565b5b0492506008810190505b61271083106123025761271083816122f8576122f7613255565b5b0492506004810190505b60648310612325576064838161231b5761231a613255565b5b0492506002810190505b600a8310612334576001810190505b80915050919050565b600073ffffffffffffffffffffffffffffffffffffffff168273ffffffffffffffffffffffffffffffffffffffff16036123af5760006040517f64a0ae920000000000000000000000000000000000000000000000000000000081526004016123a6919061265b565b60405180910390fd5b60006123bd838360006113f4565b9050600073ffffffffffffffffffffffffffffffffffffffff168173ffffffffffffffffffffffffffffffffffffffff16146124315760006040517f73c6ac6e000000000000000000000000000000000000000000000000000000008152600401612428919061265b565b60405180910390fd5b505050565b6000604051905090565b600080fd5b600080fd5b60007fffffffff0000000000000000000000000000000000000000000000000000000082169050919050565b61247f8161244a565b811461248a57600080fd5b50565b60008135905061249c81612476565b92915050565b6000602082840312156124b8576124b7612440565b5b60006124c68482850161248d565b91505092915050565b60008115159050919050565b6124e4816124cf565b82525050565b60006020820190506124ff60008301846124db565b92915050565b600081519050919050565b600082825260208201905092915050565b60005b8381101561253f578082015181840152602081019050612524565b60008484015250505050565b6000601f19601f8301169050919050565b600061256782612505565b6125718185612510565b9350612581818560208601612521565b61258a8161254b565b840191505092915050565b600060208201905081810360008301526125af818461255c565b905092915050565b6000819050919050565b6125ca816125b7565b81146125d557600080fd5b50565b6000813590506125e7816125c1565b92915050565b60006020828403121561260357612602612440565b5b6000612611848285016125d8565b91505092915050565b600073ffffffffffffffffffffffffffffffffffffffff82169050919050565b60006126458261261a565b9050919050565b6126558161263a565b82525050565b6000602082019050612670600083018461264c565b92915050565b61267f8161263a565b811461268a57600080fd5b50565b60008135905061269c81612676565b92915050565b600080604083850312156126b9576126b8612440565b5b60006126c78582860161268d565b92505060206126d8858286016125d8565b9150509250929050565b6000806000606084860312156126fb576126fa612440565b5b60006127098682870161268d565b935050602061271a8682870161268d565b925050604061272b868287016125d8565b9150509250925092565b60006020828403121561274b5761274a612440565b5b60006127598482850161268d565b91505092915050565b61276b816125b7565b82525050565b60006020820190506127866000830184612762565b92915050565b612795816124cf565b81146127a057600080fd5b50565b6000813590506127b28161278c565b92915050565b600080604083850312156127cf576127ce612440565b5b60006127dd8582860161268d565b92505060206127ee858286016127a3565b9150509250929050565b600080fd5b600080fd5b7f4e487b7100000000000000000000000000000000000000000000000000000000600052604160045260246000fd5b61283a8261254b565b810181811067ffffffffffffffff8211171561285957612858612802565b5b80604052505050565b600061286c612436565b90506128788282612831565b919050565b600067ffffffffffffffff82111561289857612897612802565b5b6128a18261254b565b9050602081019050919050565b82818337600083830152505050565b60006128d06128cb8461287d565b612862565b9050828152602081018484840111156128ec576128eb6127fd565b5b6128f78482856128ae565b509392505050565b600082601f830112612914576129136127f8565b5b81356129248482602086016128bd565b91505092915050565b6000806000806080858703121561294757612946612440565b5b60006129558782880161268d565b94505060206129668782880161268d565b9350506040612977878288016125d8565b925050606085013567ffffffffffffffff81111561299857612997612445565b5b6129a4878288016128ff565b91505092959194509250565b600067ffffffffffffffff8211156129cb576129ca612802565b5b6129d48261254b565b9050602081019050919050565b60006129f46129ef846129b0565b612862565b905082815260208101848484011115612a1057612a0f6127fd565b5b612a1b8482856128ae565b509392505050565b600082601f830112612a3857612a376127f8565b5b8135612a488482602086016129e1565b91505092915050565b600060208284031215612a6757612a66612440565b5b600082013567ffffffffffffffff811115612a8557612a84612445565b5b612a9184828501612a23565b91505092915050565b60008060408385031215612ab157612ab0612440565b5b6000612abf8582860161268d565b9250506020612ad08582860161268d565b9150509250929050565b7f4e487b7100000000000000000000000000000000000000000000000000000000600052602260045260246000fd5b60006002820490506001821680612b2157607f821691505b602082108103612b3457612b33612ada565b5b50919050565b6000606082019050612b4f600083018661264c565b612b5c6020830185612762565b612b69604083018461264c565b949350505050565b7f4e6f206665657320617661696c61626c6520666f72207769746864726177616c600082015250565b6000612ba7602083612510565b9150612bb282612b71565b602082019050919050565b60006020820190508181036000830152612bd681612b9a565b9050919050565b7f43616c6c6572206973206e6f74206f776e6572206e6f7220617070726f766564600082015250565b6000612c13602083612510565b9150612c1e82612bdd565b602082019050919050565b60006020820190508181036000830152612c4281612c06565b9050919050565b7f496e73756666696369656e74207472616e736665722066656500000000000000600082015250565b6000612c7f601983612510565b9150612c8a82612c49565b602082019050919050565b60006020820190508181036000830152612cae81612c72565b9050919050565b6000606082019050612cca600083018661264c565b612cd7602083018561264c565b612ce46040830184612762565b949350505050565b600081905092915050565b6000612d0282612505565b612d0c8185612cec565b9350612d1c818560208601612521565b80840191505092915050565b6000612d348285612cf7565b9150612d408284612cf7565b91508190509392505050565b7f4e6f7420616e20617070726f7665642063726561746f72000000000000000000600082015250565b6000612d82601783612510565b9150612d8d82612d4c565b602082019050919050565b60006020820190508181036000830152612db181612d75565b9050919050565b7f496e73756666696369656e74206372656174696f6e2066656500000000000000600082015250565b6000612dee601983612510565b9150612df982612db8565b602082019050919050565b60006020820190508181036000830152612e1d81612de1565b9050919050565b7f4e487b7100000000000000000000000000000000000000000000000000000000600052601160045260246000fd5b6000612e5e826125b7565b91507fffffffffffffffffffffffffffffffffffffffffffffffffffffffffffffffff8203612e9057612e8f612e24565b5b600182019050919050565b6000604082019050612eb0600083018561264c565b8181036020830152612ec2818461255c565b90509392505050565b600081519050919050565b600082825260208201905092915050565b6000612ef282612ecb565b612efc8185612ed6565b9350612f0c818560208601612521565b612f158161254b565b840191505092915050565b6000608082019050612f35600083018761264c565b612f42602083018661264c565b612f4f6040830185612762565b8181036060830152612f618184612ee7565b905095945050505050565b600081519050612f7b81612476565b92915050565b600060208284031215612f9757612f96612440565b5b6000612fa584828501612f6c565b91505092915050565b60008190508160005260206000209050919050565b60006020601f8301049050919050565b600082821b905092915050565b6000600883026130107fffffffffffffffffffffffffffffffffffffffffffffffffffffffffffffffff82612fd3565b61301a8683612fd3565b95508019841693508086168417925050509392505050565b6000819050919050565b600061305761305261304d846125b7565b613032565b6125b7565b9050919050565b6000819050919050565b6130718361303c565b61308561307d8261305e565b848454612fe0565b825550505050565b600090565b61309a61308d565b6130a5818484613068565b505050565b5b818110156130c9576130be600082613092565b6001810190506130ab565b5050565b601f82111561310e576130df81612fae565b6130e884612fc3565b810160208510156130f7578190505b61310b61310385612fc3565b8301826130aa565b50505b505050565b600082821c905092915050565b600061313160001984600802613113565b1980831691505092915050565b600061314a8383613120565b9150826002028217905092915050565b61316382612505565b67ffffffffffffffff81111561317c5761317b612802565b5b6131868254612b09565b6131918282856130cd565b600060209050601f8311600181146131c457600084156131b2578287015190505b6131bc858261313e565b865550613224565b601f1984166131d286612fae565b60005b828110156131fa578489015182556001820191506020850194506020810190506131d5565b868310156132175784890151613213601f891682613120565b8355505b6001600288020188555050505b505050505050565b6000604082019050613241600083018561264c565b61324e6020830184612762565b9392505050565b7f4e487b7100000000000000000000000000000000000000000000000000000000600052601260045260246000fdfea26469706673582212204752284c67cedce63acfbc8dc3f1ec8284ff015ae271b55b960d75309184654f64736f6c634300081c0033",
  "linkReferences": {},
  "deployedLinkReferences": {}
}