{
  "_format": "hh-sol-artifact-1",
  "contractName": "NFTMarketplace",
  "sourceName": "contracts/NFTMarkplace.sol",
  "abi": [
    {
      "inputs": [],
      "stateMutability": "nonpayable",
      "type": "constructor"
    },
    {
      "inputs": [],
      "name": "EnforcedPause",
      "type": "error"
    },
    {
      "inputs": [],
      "name": "ExpectedPause",
      "type": "error"
    },
    {
      "inputs": [
        {
          "internalType": "address",
          "name": "owner",
          "type": "address"
        }
      ],
      "name": "OwnableInvalidOwner",
      "type": "error"
    },
    {
      "inputs": [
        {
          "internalType": "address",
          "name": "account",
          "type": "address"
        }
      ],
      "name": "OwnableUnauthorizedAccount",
      "type": "error"
    },
    {
      "inputs": [],
      "name": "ReentrancyGuardReentrantCall",
      "type": "error"
    },
    {
      "anonymous": false,
      "inputs": [
        {
          "indexed": true,
          "internalType": "address",
          "name": "nftContract",
          "type": "address"
        },
        {
          "indexed": true,
          "internalType": "uint256",
          "name": "tokenId",
          "type": "uint256"
        },
        {
          "indexed": true,
          "internalType": "address",
          "name": "seller",
          "type": "address"
        }
      ],
      "name": "ListingCanceled",
      "type": "event"
    },
    {
      "anonymous": false,
      "inputs": [
        {
          "indexed": false,
          "internalType": "uint256",
          "name": "newFeePercent",
          "type": "uint256"
        }
      ],
      "name": "MarketplaceFeeUpdated",
      "type": "event"
    },
    {
      "anonymous": false,
      "inputs": [
        {
          "indexed": false,
          "internalType": "address",
          "name": "nftContract",
          "type": "address"
        }
      ],
      "name": "NFTContractApproved",
      "type": "event"
    },
    {
      "anonymous": false,
      "inputs": [
        {
          "indexed": false,
          "internalType": "address",
          "name": "nftContract",
          "type": "address"
        }
      ],
      "name": "NFTContractRevoked",
      "type": "event"
    },
    {
      "anonymous": false,
      "inputs": [
        {
          "indexed": true,
          "internalType": "address",
          "name": "nftContract",
          "type": "address"
        },
        {
          "indexed": true,
          "internalType": "uint256",
          "name": "tokenId",
          "type": "uint256"
        },
        {
          "indexed": true,
          "internalType": "address",
          "name": "seller",
          "type": "address"
        },
        {
          "indexed": false,
          "internalType": "uint256",
          "name": "price",
          "type": "uint256"
        }
      ],
      "name": "NFTListed",
      "type": "event"
    },
    {
      "anonymous": false,
      "inputs": [
        {
          "indexed": true,
          "internalType": "address",
          "name": "nftContract",
          "type": "address"
        },
        {
          "indexed": true,
          "internalType": "uint256",
          "name": "tokenId",
          "type": "uint256"
        },
        {
          "indexed": true,
          "internalType": "address",
          "name": "buyer",
          "type": "address"
        },
        {
          "indexed": false,
          "internalType": "address",
          "name": "seller",
          "type": "address"
        },
        {
          "indexed": false,
          "internalType": "uint256",
          "name": "price",
          "type": "uint256"
        }
      ],
      "name": "NFTPurchased",
      "type": "event"
    },
    {
      "anonymous": false,
      "inputs": [
        {
          "indexed": true,
          "internalType": "address",
          "name": "previousOwner",
          "type": "address"
        },
        {
          "indexed": true,
          "internalType": "address",
          "name": "newOwner",
          "type": "address"
        }
      ],
      "name": "OwnershipTransferred",
      "type": "event"
    },
    {
      "anonymous": false,
      "inputs": [
        {
          "indexed": false,
          "internalType": "address",
          "name": "account",
          "type": "address"
        }
      ],
      "name": "Paused",
      "type": "event"
    },
    {
      "anonymous": false,
      "inputs": [
        {
          "indexed": false,
          "internalType": "address",
          "name": "account",
          "type": "address"
        }
      ],
      "name": "Unpaused",
      "type": "event"
    },
    {
      "stateMutability": "payable",
      "type": "fallback"
    },
    {
      "inputs": [],
      "name": "MAX_MARKETPLACE_FEE",
      "outputs": [
        {
          "internalType": "uint256",
          "name": "",
          "type": "uint256"
        }
      ],
      "stateMutability": "view",
      "type": "function"
    },
    {
      "inputs": [
        {
          "internalType": "address",
          "name": "",
          "type": "address"
        }
      ],
      "name": "allowedNFTContracts",
      "outputs": [
        {
          "internalType": "bool",
          "name": "",
          "type": "bool"
        }
      ],
      "stateMutability": "view",
      "type": "function"
    },
    {
      "inputs": [
        {
          "internalType": "address",
          "name": "_nftContract",
          "type": "address"
        }
      ],
      "name": "approveNFTContract",
      "outputs": [],
      "stateMutability": "nonpayable",
      "type": "function"
    },
    {
      "inputs": [
        {
          "internalType": "address",
          "name": "_nftContract",
          "type": "address"
        },
        {
          "internalType": "uint256",
          "name": "_tokenId",
          "type": "uint256"
        }
      ],
      "name": "cancelListing",
      "outputs": [],
      "stateMutability": "nonpayable",
      "type": "function"
    },
    {
      "inputs": [
        {
          "internalType": "address",
          "name": "_nftContract",
          "type": "address"
        },
        {
          "internalType": "uint256",
          "name": "_tokenId",
          "type": "uint256"
        },
        {
          "internalType": "uint256",
          "name": "_price",
          "type": "uint256"
        }
      ],
      "name": "listNFT",
      "outputs": [],
      "stateMutability": "nonpayable",
      "type": "function"
    },
    {
      "inputs": [
        {
          "internalType": "address",
          "name": "",
          "type": "address"
        },
        {
          "internalType": "uint256",
          "name": "",
          "type": "uint256"
        }
      ],
      "name": "listings",
      "outputs": [
        {
          "internalType": "address",
          "name": "seller",
          "type": "address"
        },
        {
          "internalType": "address",
          "name": "nftContract",
          "type": "address"
        },
        {
          "internalType": "uint256",
          "name": "tokenId",
          "type": "uint256"
        },
        {
          "internalType": "uint256",
          "name": "price",
          "type": "uint256"
        },
        {
          "internalType": "bool",
          "name": "isActive",
          "type": "bool"
        }
      ],
      "stateMutability": "view",
      "type": "function"
    },
    {
      "inputs": [],
      "name": "marketplaceFeePercent",
      "outputs": [
        {
          "internalType": "uint256",
          "name": "",
          "type": "uint256"
        }
      ],
      "stateMutability": "view",
      "type": "function"
    },
    {
      "inputs": [],
      "name": "owner",
      "outputs": [
        {
          "internalType": "address",
          "name": "",
          "type": "address"
        }
      ],
      "stateMutability": "view",
      "type": "function"
    },
    {
      "inputs": [],
      "name": "pause",
      "outputs": [],
      "stateMutability": "nonpayable",
      "type": "function"
    },
    {
      "inputs": [],
      "name": "paused",
      "outputs": [
        {
          "internalType": "bool",
          "name": "",
          "type": "bool"
        }
      ],
      "stateMutability": "view",
      "type": "function"
    },
    {
      "inputs": [
        {
          "internalType": "address",
          "name": "_nftContract",
          "type": "address"
        },
        {
          "internalType": "uint256",
          "name": "_tokenId",
          "type": "uint256"
        }
      ],
      "name": "purchaseNFT",
      "outputs": [],
      "stateMutability": "payable",
      "type": "function"
    },
    {
      "inputs": [],
      "name": "renounceOwnership",
      "outputs": [],
      "stateMutability": "nonpayable",
      "type": "function"
    },
    {
      "inputs": [
        {
          "internalType": "address",
          "name": "_nftContract",
          "type": "address"
        }
      ],
      "name": "revokeNFTContract",
      "outputs": [],
      "stateMutability": "nonpayable",
      "type": "function"
    },
    {
      "inputs": [],
      "name": "totalMarketplaceFees",
      "outputs": [
        {
          "internalType": "uint256",
          "name": "",
          "type": "uint256"
        }
      ],
      "stateMutability": "view",
      "type": "function"
    },
    {
      "inputs": [
        {
          "internalType": "address",
          "name": "newOwner",
          "type": "address"
        }
      ],
      "name": "transferOwnership",
      "outputs": [],
      "stateMutability": "nonpayable",
      "type": "function"
    },
    {
      "inputs": [],
      "name": "unpause",
      "outputs": [],
      "stateMutability": "nonpayable",
      "type": "function"
    },
    {
      "inputs": [
        {
          "internalType": "uint256",
          "name": "_newFeePercent",
          "type": "uint256"
        }
      ],
      "name": "updateMarketplaceFee",
      "outputs": [],
      "stateMutability": "nonpayable",
      "type": "function"
    },
    {
      "inputs": [],
      "name": "withdrawMarketplaceFees",
      "outputs": [],
      "stateMutability": "nonpayable",
      "type": "function"
    },
    {
      "stateMutability": "payable",
      "type": "receive"
    }
  ],
  "bytecode": "0x6080604052600560035534801561001557600080fd5b5033600073ffffffffffffffffffffffffffffffffffffffff168173ffffffffffffffffffffffffffffffffffffffff16036100895760006040517f1e4fbdf700000000000000000000000000000000000000000000000000000000815260040161008091906101c5565b60405180910390fd5b610098816100c060201b60201c565b50600180819055506000600260006101000a81548160ff0219169083151502179055506101e0565b60008060009054906101000a900473ffffffffffffffffffffffffffffffffffffffff169050816000806101000a81548173ffffffffffffffffffffffffffffffffffffffff021916908373ffffffffffffffffffffffffffffffffffffffff1602179055508173ffffffffffffffffffffffffffffffffffffffff168173ffffffffffffffffffffffffffffffffffffffff167f8be0079c531659141344cd1fd0a4f28419497f9722a3daafe3b4186f6b6457e060405160405180910390a35050565b600073ffffffffffffffffffffffffffffffffffffffff82169050919050565b60006101af82610184565b9050919050565b6101bf816101a4565b82525050565b60006020820190506101da60008301846101b6565b92915050565b612037806101ef6000396000f3fe60806040526004361061010c5760003560e01c806384b75f9511610095578063b2ddee0611610064578063b2ddee0614610367578063c0f6ae9714610390578063ca28ae84146103cd578063ce5c51a2146103f8578063f2fde38b146104215761014c565b806384b75f95146102cc5780638da5cb5b146102f7578063a87e25ac14610322578063ad05f1b41461033e5761014c565b80633f4ba83a116100dc5780633f4ba83a14610233578063591f0f631461024a5780635c975abb14610273578063715018a61461029e5780638456cb59146102b55761014c565b806207df30146101875780632a25194f146101c857806330eb80cd146101df57806338d73b0d146102085761014c565b3661014c576040517f08c379a0000000000000000000000000000000000000000000000000000000008152600401610143906116e9565b60405180910390fd5b6040517f08c379a000000000000000000000000000000000000000000000000000000000815260040161017e90611755565b60405180910390fd5b34801561019357600080fd5b506101ae60048036038101906101a9919061180e565b61044a565b6040516101bf959493929190611887565b60405180910390f35b3480156101d457600080fd5b506101dd6104da565b005b3480156101eb57600080fd5b50610206600480360381019061020191906118da565b610542565b005b34801561021457600080fd5b5061021d6105cf565b60405161022a9190611907565b60405180910390f35b34801561023f57600080fd5b506102486105d5565b005b34801561025657600080fd5b50610271600480360381019061026c9190611922565b6105e7565b005b34801561027f57600080fd5b50610288610681565b604051610295919061194f565b60405180910390f35b3480156102aa57600080fd5b506102b3610698565b005b3480156102c157600080fd5b506102ca6106ac565b005b3480156102d857600080fd5b506102e16106be565b6040516102ee9190611907565b60405180910390f35b34801561030357600080fd5b5061030c6106c4565b604051610319919061196a565b60405180910390f35b61033c6004803603810190610337919061180e565b6106ed565b005b34801561034a57600080fd5b5061036560048036038101906103609190611985565b610a31565b005b34801561037357600080fd5b5061038e6004803603810190610389919061180e565b610fb4565b005b34801561039c57600080fd5b506103b760048036038101906103b29190611922565b6111ef565b6040516103c4919061194f565b60405180910390f35b3480156103d957600080fd5b506103e261120f565b6040516103ef9190611907565b60405180910390f35b34801561040457600080fd5b5061041f600480360381019061041a9190611922565b611214565b005b34801561042d57600080fd5b5061044860048036038101906104439190611922565b61131d565b005b6005602052816000526040600020602052806000526040600020600091509150508060000160009054906101000a900473ffffffffffffffffffffffffffffffffffffffff16908060010160009054906101000a900473ffffffffffffffffffffffffffffffffffffffff16908060020154908060030154908060040160009054906101000a900460ff16905085565b6104e26113a3565b6000600654905060006006819055506104f96106c4565b73ffffffffffffffffffffffffffffffffffffffff166108fc829081150290604051600060405180830381858888f1935050505015801561053e573d6000803e3d6000fd5b5050565b61054a6113a3565b600a81111561058e576040517f08c379a000000000000000000000000000000000000000000000000000000000815260040161058590611a24565b60405180910390fd5b806003819055507fe18aa129833f655a8166b6185277fee7a53f67e46fd32329bc2fc2ac21274d55816040516105c49190611907565b60405180910390a150565b60035481565b6105dd6113a3565b6105e561142a565b565b6105ef6113a3565b6000600460008373ffffffffffffffffffffffffffffffffffffffff1673ffffffffffffffffffffffffffffffffffffffff16815260200190815260200160002060006101000a81548160ff0219169083151502179055507fa5af3e7151622933bd37666615618addc376f13b9b351191a2ba706a985a713e81604051610676919061196a565b60405180910390a150565b6000600260009054906101000a900460ff16905090565b6106a06113a3565b6106aa600061148d565b565b6106b46113a3565b6106bc611551565b565b60065481565b60008060009054906101000a900473ffffffffffffffffffffffffffffffffffffffff16905090565b6106f56115b4565b6106fd6115fa565b6000600560008473ffffffffffffffffffffffffffffffffffffffff1673ffffffffffffffffffffffffffffffffffffffff168152602001908152602001600020600083815260200190815260200160002090508060040160009054906101000a900460ff166107a2576040517f08c379a000000000000000000000000000000000000000000000000000000000815260040161079990611a90565b60405180910390fd5b80600301543410156107e9576040517f08c379a00000000000000000000000000000000000000000000000000000000081526004016107e090611afc565b60405180910390fd5b6000606460035483600301546107ff9190611b4b565b6108099190611bbc565b9050600081836003015461081d9190611bed565b905081600660008282546108319190611c21565b925050819055508260000160009054906101000a900473ffffffffffffffffffffffffffffffffffffffff1673ffffffffffffffffffffffffffffffffffffffff166108fc829081150290604051600060405180830381858888f193505050501580156108a2573d6000803e3d6000fd5b508473ffffffffffffffffffffffffffffffffffffffff166323b872dd3033876040518463ffffffff1660e01b81526004016108e093929190611c55565b600060405180830381600087803b1580156108fa57600080fd5b505af115801561090e573d6000803e3d6000fd5b5050505060008360040160006101000a81548160ff0219169083151502179055508260030154341115610992573373ffffffffffffffffffffffffffffffffffffffff166108fc8460030154346109659190611bed565b9081150290604051600060405180830381858888f19350505050158015610990573d6000803e3d6000fd5b505b3373ffffffffffffffffffffffffffffffffffffffff16848673ffffffffffffffffffffffffffffffffffffffff167ff21d371c4b1c5ea95fb4de4376d029ad7dbf7c14402103c422a31b9ca225e5d98660000160009054906101000a900473ffffffffffffffffffffffffffffffffffffffff168760030154604051610a1a929190611c8c565b60405180910390a4505050610a2d61163b565b5050565b610a396115b4565b610a416115fa565b600460008473ffffffffffffffffffffffffffffffffffffffff1673ffffffffffffffffffffffffffffffffffffffff16815260200190815260200160002060009054906101000a900460ff16610acd576040517f08c379a0000000000000000000000000000000000000000000000000000000008152600401610ac490611d01565b60405180910390fd5b60008111610b10576040517f08c379a0000000000000000000000000000000000000000000000000000000008152600401610b0790611d6d565b60405180910390fd5b60008390503373ffffffffffffffffffffffffffffffffffffffff168173ffffffffffffffffffffffffffffffffffffffff16636352211e856040518263ffffffff1660e01b8152600401610b659190611907565b602060405180830381865afa158015610b82573d6000803e3d6000fd5b505050506040513d601f19601f82011682018060405250810190610ba69190611da2565b73ffffffffffffffffffffffffffffffffffffffff1614610bfc576040517f08c379a0000000000000000000000000000000000000000000000000000000008152600401610bf390611e1b565b60405180910390fd5b3073ffffffffffffffffffffffffffffffffffffffff168173ffffffffffffffffffffffffffffffffffffffff1663081812fc856040518263ffffffff1660e01b8152600401610c4c9190611907565b602060405180830381865afa158015610c69573d6000803e3d6000fd5b505050506040513d601f19601f82011682018060405250810190610c8d9190611da2565b73ffffffffffffffffffffffffffffffffffffffff161480610d2757508073ffffffffffffffffffffffffffffffffffffffff1663e985e9c533306040518363ffffffff1660e01b8152600401610ce5929190611e3b565b602060405180830381865afa158015610d02573d6000803e3d6000fd5b505050506040513d601f19601f82011682018060405250810190610d269190611e90565b5b610d66576040517f08c379a0000000000000000000000000000000000000000000000000000000008152600401610d5d90611f09565b60405180910390fd5b8073ffffffffffffffffffffffffffffffffffffffff166323b872dd3330866040518463ffffffff1660e01b8152600401610da393929190611c55565b600060405180830381600087803b158015610dbd57600080fd5b505af1158015610dd1573d6000803e3d6000fd5b505050506040518060a001604052803373ffffffffffffffffffffffffffffffffffffffff1681526020018573ffffffffffffffffffffffffffffffffffffffff16815260200184815260200183815260200160011515815250600560008673ffffffffffffffffffffffffffffffffffffffff1673ffffffffffffffffffffffffffffffffffffffff168152602001908152602001600020600085815260200190815260200160002060008201518160000160006101000a81548173ffffffffffffffffffffffffffffffffffffffff021916908373ffffffffffffffffffffffffffffffffffffffff16021790555060208201518160010160006101000a81548173ffffffffffffffffffffffffffffffffffffffff021916908373ffffffffffffffffffffffffffffffffffffffff160217905550604082015181600201556060820151816003015560808201518160040160006101000a81548160ff0219169083151502179055509050503373ffffffffffffffffffffffffffffffffffffffff16838573ffffffffffffffffffffffffffffffffffffffff167f392a0f172cb29479635d0b2219b2f96ef24f74dfdf328cb09f1496efe6cfddbe85604051610f9e9190611907565b60405180910390a450610faf61163b565b505050565b610fbc6115b4565b610fc46115fa565b6000600560008473ffffffffffffffffffffffffffffffffffffffff1673ffffffffffffffffffffffffffffffffffffffff168152602001908152602001600020600083815260200190815260200160002090503373ffffffffffffffffffffffffffffffffffffffff168160000160009054906101000a900473ffffffffffffffffffffffffffffffffffffffff1673ffffffffffffffffffffffffffffffffffffffff16146110aa576040517f08c379a00000000000000000000000000000000000000000000000000000000081526004016110a190611f75565b60405180910390fd5b8060040160009054906101000a900460ff166110fb576040517f08c379a00000000000000000000000000000000000000000000000000000000081526004016110f290611a90565b60405180910390fd5b8273ffffffffffffffffffffffffffffffffffffffff166323b872dd3033856040518463ffffffff1660e01b815260040161113893929190611c55565b600060405180830381600087803b15801561115257600080fd5b505af1158015611166573d6000803e3d6000fd5b5050505060008160040160006101000a81548160ff0219169083151502179055503373ffffffffffffffffffffffffffffffffffffffff16828473ffffffffffffffffffffffffffffffffffffffff167fcf45896873f759e6a8c2348e49ff9892b89458850ab6c70339e1c430227ce91d60405160405180910390a4506111eb61163b565b5050565b60046020528060005260406000206000915054906101000a900460ff1681565b600a81565b61121c6113a3565b600073ffffffffffffffffffffffffffffffffffffffff168173ffffffffffffffffffffffffffffffffffffffff160361128b576040517f08c379a000000000000000000000000000000000000000000000000000000000815260040161128290611fe1565b60405180910390fd5b6001600460008373ffffffffffffffffffffffffffffffffffffffff1673ffffffffffffffffffffffffffffffffffffffff16815260200190815260200160002060006101000a81548160ff0219169083151502179055507f6c74f9ccf9e665ff28860d028959083b2eec81571f622d722893d8fdc20e056a81604051611312919061196a565b60405180910390a150565b6113256113a3565b600073ffffffffffffffffffffffffffffffffffffffff168173ffffffffffffffffffffffffffffffffffffffff16036113975760006040517f1e4fbdf700000000000000000000000000000000000000000000000000000000815260040161138e919061196a565b60405180910390fd5b6113a08161148d565b50565b6113ab611644565b73ffffffffffffffffffffffffffffffffffffffff166113c96106c4565b73ffffffffffffffffffffffffffffffffffffffff1614611428576113ec611644565b6040517f118cdaa700000000000000000000000000000000000000000000000000000000815260040161141f919061196a565b60405180910390fd5b565b61143261164c565b6000600260006101000a81548160ff0219169083151502179055507f5db9ee0a495bf2e6ff9c91a7834c1ba4fdd244a5e8aa4e537bd38aeae4b073aa611476611644565b604051611483919061196a565b60405180910390a1565b60008060009054906101000a900473ffffffffffffffffffffffffffffffffffffffff169050816000806101000a81548173ffffffffffffffffffffffffffffffffffffffff021916908373ffffffffffffffffffffffffffffffffffffffff1602179055508173ffffffffffffffffffffffffffffffffffffffff168173ffffffffffffffffffffffffffffffffffffffff167f8be0079c531659141344cd1fd0a4f28419497f9722a3daafe3b4186f6b6457e060405160405180910390a35050565b6115596115fa565b6001600260006101000a81548160ff0219169083151502179055507f62e78cea01bee320cd4e420270b5ea74000d11b0c9f74754ebdbfc544b05a25861159d611644565b6040516115aa919061196a565b60405180910390a1565b6002600154036115f0576040517f3ee5aeb500000000000000000000000000000000000000000000000000000000815260040160405180910390fd5b6002600181905550565b611602610681565b15611639576040517fd93c066500000000000000000000000000000000000000000000000000000000815260040160405180910390fd5b565b60018081905550565b600033905090565b611654610681565b61168a576040517f8dfc202b00000000000000000000000000000000000000000000000000000000815260040160405180910390fd5b565b600082825260208201905092915050565b7f446972656374207472616e7366657273206e6f7420616c6c6f77656400000000600082015250565b60006116d3601c8361168c565b91506116de8261169d565b602082019050919050565b60006020820190508181036000830152611702816116c6565b9050919050565b7f496e76616c69642066756e6374696f6e2063616c6c0000000000000000000000600082015250565b600061173f60158361168c565b915061174a82611709565b602082019050919050565b6000602082019050818103600083015261176e81611732565b9050919050565b600080fd5b600073ffffffffffffffffffffffffffffffffffffffff82169050919050565b60006117a58261177a565b9050919050565b6117b58161179a565b81146117c057600080fd5b50565b6000813590506117d2816117ac565b92915050565b6000819050919050565b6117eb816117d8565b81146117f657600080fd5b50565b600081359050611808816117e2565b92915050565b6000806040838503121561182557611824611775565b5b6000611833858286016117c3565b9250506020611844858286016117f9565b9150509250929050565b6118578161179a565b82525050565b611866816117d8565b82525050565b60008115159050919050565b6118818161186c565b82525050565b600060a08201905061189c600083018861184e565b6118a9602083018761184e565b6118b6604083018661185d565b6118c3606083018561185d565b6118d06080830184611878565b9695505050505050565b6000602082840312156118f0576118ef611775565b5b60006118fe848285016117f9565b91505092915050565b600060208201905061191c600083018461185d565b92915050565b60006020828403121561193857611937611775565b5b6000611946848285016117c3565b91505092915050565b60006020820190506119646000830184611878565b92915050565b600060208201905061197f600083018461184e565b92915050565b60008060006060848603121561199e5761199d611775565b5b60006119ac868287016117c3565b93505060206119bd868287016117f9565b92505060406119ce868287016117f9565b9150509250925092565b7f4665652065786365656473206d6178696d756d206c696d697400000000000000600082015250565b6000611a0e60198361168c565b9150611a19826119d8565b602082019050919050565b60006020820190508181036000830152611a3d81611a01565b9050919050565b7f4c697374696e67206973206e6f74206163746976650000000000000000000000600082015250565b6000611a7a60158361168c565b9150611a8582611a44565b602082019050919050565b60006020820190508181036000830152611aa981611a6d565b9050919050565b7f496e73756666696369656e74207061796d656e74000000000000000000000000600082015250565b6000611ae660148361168c565b9150611af182611ab0565b602082019050919050565b60006020820190508181036000830152611b1581611ad9565b9050919050565b7f4e487b7100000000000000000000000000000000000000000000000000000000600052601160045260246000fd5b6000611b56826117d8565b9150611b61836117d8565b9250828202611b6f816117d8565b91508282048414831517611b8657611b85611b1c565b5b5092915050565b7f4e487b7100000000000000000000000000000000000000000000000000000000600052601260045260246000fd5b6000611bc7826117d8565b9150611bd2836117d8565b925082611be257611be1611b8d565b5b828204905092915050565b6000611bf8826117d8565b9150611c03836117d8565b9250828203905081811115611c1b57611c1a611b1c565b5b92915050565b6000611c2c826117d8565b9150611c37836117d8565b9250828201905080821115611c4f57611c4e611b1c565b5b92915050565b6000606082019050611c6a600083018661184e565b611c77602083018561184e565b611c84604083018461185d565b949350505050565b6000604082019050611ca1600083018561184e565b611cae602083018461185d565b9392505050565b7f4e465420636f6e7472616374206e6f7420616c6c6f7765640000000000000000600082015250565b6000611ceb60188361168c565b9150611cf682611cb5565b602082019050919050565b60006020820190508181036000830152611d1a81611cde565b9050919050565b7f5072696365206d7573742062652067726561746572207468616e207a65726f00600082015250565b6000611d57601f8361168c565b9150611d6282611d21565b602082019050919050565b60006020820190508181036000830152611d8681611d4a565b9050919050565b600081519050611d9c816117ac565b92915050565b600060208284031215611db857611db7611775565b5b6000611dc684828501611d8d565b91505092915050565b7f4e6f74204e4654206f776e657200000000000000000000000000000000000000600082015250565b6000611e05600d8361168c565b9150611e1082611dcf565b602082019050919050565b60006020820190508181036000830152611e3481611df8565b9050919050565b6000604082019050611e50600083018561184e565b611e5d602083018461184e565b9392505050565b611e6d8161186c565b8114611e7857600080fd5b50565b600081519050611e8a81611e64565b92915050565b600060208284031215611ea657611ea5611775565b5b6000611eb484828501611e7b565b91505092915050565b7f4d61726b6574706c616365206e6f7420617070726f7665640000000000000000600082015250565b6000611ef360188361168c565b9150611efe82611ebd565b602082019050919050565b60006020820190508181036000830152611f2281611ee6565b9050919050565b7f4f6e6c792073656c6c65722063616e2063616e63656c00000000000000000000600082015250565b6000611f5f60168361168c565b9150611f6a82611f29565b602082019050919050565b60006020820190508181036000830152611f8e81611f52565b9050919050565b7f496e76616c696420636f6e747261637420616464726573730000000000000000600082015250565b6000611fcb60188361168c565b9150611fd682611f95565b602082019050919050565b60006020820190508181036000830152611ffa81611fbe565b905091905056fea26469706673582212202342ab7394f21c13d75e87fc36118e2075e6975ee2fa169ab82f46c9029bc73464736f6c634300081c0033",
  "linkReferences": {},
  "deployedLinkReferences": {}
}